{
  "contractName": "Users",
  "abi": [
    {
      "inputs": [
        {
          "internalType": "address",
          "name": "",
          "type": "address"
        }
      ],
      "name": "users",
      "outputs": [
        {
          "internalType": "address",
          "name": "walletAddress",
          "type": "address"
        },
        {
          "internalType": "string",
          "name": "id",
          "type": "string"
        },
        {
          "internalType": "string",
          "name": "name",
          "type": "string"
        },
        {
          "internalType": "string",
          "name": "email",
          "type": "string"
        },
        {
          "internalType": "string",
          "name": "password",
          "type": "string"
        }
      ],
      "stateMutability": "view",
      "type": "function",
      "constant": true
    },
    {
      "inputs": [
        {
          "internalType": "address",
          "name": "_walletAddress",
          "type": "address"
        },
        {
          "internalType": "string",
          "name": "_userid",
          "type": "string"
        },
        {
          "internalType": "string",
          "name": "_name",
          "type": "string"
        },
        {
          "internalType": "string",
          "name": "_email",
          "type": "string"
        },
        {
          "internalType": "string",
          "name": "_password",
          "type": "string"
        }
      ],
      "name": "createUser",
      "outputs": [],
      "stateMutability": "nonpayable",
      "type": "function"
    },
    {
      "inputs": [],
      "name": "getData",
      "outputs": [
        {
          "internalType": "address[]",
          "name": "",
          "type": "address[]"
        }
      ],
      "stateMutability": "view",
      "type": "function",
      "constant": true
    }
  ],
  "bytecode": "0x608060405234801561001057600080fd5b50610b4b806100206000396000f3fe608060405234801561001057600080fd5b50600436106100415760003560e01c80633bc5de301461004657806343214fcb14610064578063a87430ba14610080575b600080fd5b61004e6100b4565b60405161005b91906106ef565b60405180910390f35b61007e60048036038101906100799190610897565b610142565b005b61009a60048036038101906100959190610982565b6102e6565b6040516100ab959493929190610a46565b60405180910390f35b6060600080548060200260200160405190810160405280929190818152602001828054801561013857602002820191906000526020600020905b8160009054906101000a900473ffffffffffffffffffffffffffffffffffffffff1673ffffffffffffffffffffffffffffffffffffffff16815260200190600101908083116100ee575b5050505050905090565b6040518060a001604052808673ffffffffffffffffffffffffffffffffffffffff16815260200185815260200184815260200183815260200182815250600160003373ffffffffffffffffffffffffffffffffffffffff1673ffffffffffffffffffffffffffffffffffffffff16815260200190815260200160002060008201518160000160006101000a81548173ffffffffffffffffffffffffffffffffffffffff021916908373ffffffffffffffffffffffffffffffffffffffff160217905550602082015181600101908051906020019061022192919061055c565b50604082015181600201908051906020019061023e92919061055c565b50606082015181600301908051906020019061025b92919061055c565b50608082015181600401908051906020019061027892919061055c565b509050506000859080600181540180825580915050600190039060005260206000200160009091909190916101000a81548173ffffffffffffffffffffffffffffffffffffffff021916908373ffffffffffffffffffffffffffffffffffffffff1602179055505050505050565b60016020528060005260406000206000915090508060000160009054906101000a900473ffffffffffffffffffffffffffffffffffffffff169080600101805461032f90610ae4565b80601f016020809104026020016040519081016040528092919081815260200182805461035b90610ae4565b80156103a85780601f1061037d576101008083540402835291602001916103a8565b820191906000526020600020905b81548152906001019060200180831161038b57829003601f168201915b5050505050908060020180546103bd90610ae4565b80601f01602080910402602001604051908101604052809291908181526020018280546103e990610ae4565b80156104365780601f1061040b57610100808354040283529160200191610436565b820191906000526020600020905b81548152906001019060200180831161041957829003601f168201915b50505050509080600301805461044b90610ae4565b80601f016020809104026020016040519081016040528092919081815260200182805461047790610ae4565b80156104c45780601f10610499576101008083540402835291602001916104c4565b820191906000526020600020905b8154815290600101906020018083116104a757829003601f168201915b5050505050908060040180546104d990610ae4565b80601f016020809104026020016040519081016040528092919081815260200182805461050590610ae4565b80156105525780601f1061052757610100808354040283529160200191610552565b820191906000526020600020905b81548152906001019060200180831161053557829003601f168201915b5050505050905085565b82805461056890610ae4565b90600052602060002090601f01602090048101928261058a57600085556105d1565b82601f106105a357805160ff19168380011785556105d1565b828001600101855582156105d1579182015b828111156105d05782518255916020019190600101906105b5565b5b5090506105de91906105e2565b5090565b5b808211156105fb5760008160009055506001016105e3565b5090565b600081519050919050565b600082825260208201905092915050565b6000819050602082019050919050565b600073ffffffffffffffffffffffffffffffffffffffff82169050919050565b60006106568261062b565b9050919050565b6106668161064b565b82525050565b6000610678838361065d565b60208301905092915050565b6000602082019050919050565b600061069c826105ff565b6106a6818561060a565b93506106b18361061b565b8060005b838110156106e25781516106c9888261066c565b97506106d483610684565b9250506001810190506106b5565b5085935050505092915050565b600060208201905081810360008301526107098184610691565b905092915050565b6000604051905090565b600080fd5b600080fd5b61072e8161064b565b811461073957600080fd5b50565b60008135905061074b81610725565b92915050565b600080fd5b600080fd5b6000601f19601f8301169050919050565b7f4e487b7100000000000000000000000000000000000000000000000000000000600052604160045260246000fd5b6107a48261075b565b810181811067ffffffffffffffff821117156107c3576107c261076c565b5b80604052505050565b60006107d6610711565b90506107e2828261079b565b919050565b600067ffffffffffffffff8211156108025761080161076c565b5b61080b8261075b565b9050602081019050919050565b82818337600083830152505050565b600061083a610835846107e7565b6107cc565b90508281526020810184848401111561085657610855610756565b5b610861848285610818565b509392505050565b600082601f83011261087e5761087d610751565b5b813561088e848260208601610827565b91505092915050565b600080600080600060a086880312156108b3576108b261071b565b5b60006108c18882890161073c565b955050602086013567ffffffffffffffff8111156108e2576108e1610720565b5b6108ee88828901610869565b945050604086013567ffffffffffffffff81111561090f5761090e610720565b5b61091b88828901610869565b935050606086013567ffffffffffffffff81111561093c5761093b610720565b5b61094888828901610869565b925050608086013567ffffffffffffffff81111561096957610968610720565b5b61097588828901610869565b9150509295509295909350565b6000602082840312156109985761099761071b565b5b60006109a68482850161073c565b91505092915050565b6109b88161064b565b82525050565b600081519050919050565b600082825260208201905092915050565b60005b838110156109f85780820151818401526020810190506109dd565b83811115610a07576000848401525b50505050565b6000610a18826109be565b610a2281856109c9565b9350610a328185602086016109da565b610a3b8161075b565b840191505092915050565b600060a082019050610a5b60008301886109af565b8181036020830152610a6d8187610a0d565b90508181036040830152610a818186610a0d565b90508181036060830152610a958185610a0d565b90508181036080830152610aa98184610a0d565b90509695505050505050565b7f4e487b7100000000000000000000000000000000000000000000000000000000600052602260045260246000fd5b60006002820490506001821680610afc57607f821691505b602082108103610b0f57610b0e610ab5565b5b5091905056fea2646970667358221220a650119dbd2a34b0f7c3719098b4bf555f31b1be4b431e33db54c4d2f64fc95464736f6c634300080e0033",
  "immutableReferences": {},
  "source": "// SPDX-License-Identifier: GPL-3.0\r\npragma solidity >=0.8.14;\r\n\r\ncontract Users {\r\n    struct User {\r\n        address walletAddress;\r\n        string id;\r\n        string name;\r\n        string email;\r\n        string password;\r\n    }\r\n\r\n    address[] UserArr;\r\n\r\n    mapping(address => User) public users;\r\n\r\n    function createUser(\r\n        address _walletAddress,\r\n        string memory _userid,\r\n        string memory _name,\r\n        string memory _email,\r\n        string memory _password\r\n    ) public {\r\n        users[msg.sender] = User({\r\n            walletAddress: _walletAddress,\r\n            id: _userid,\r\n            name: _name,\r\n            email: _email,\r\n            password: _password\r\n        });\r\n        UserArr.push(_walletAddress);\r\n    }\r\n\r\n    function getData() public view returns (address[] memory) {\r\n        return UserArr;\r\n    }\r\n}\r\n",
  "sourcePath": "E:\\SVNIT Tutorial\\tutorialapp\\contracts\\Users.sol",
  "compiler": {
    "name": "solc",
    "version": "0.8.14+commit.80d49f37.Emscripten.clang"
  },
  "schemaVersion": "3.4.7",
  "updatedAt": "2022-12-14T05:59:59.278Z",
  "networkType": "ethereum",
  "devdoc": {
    "kind": "dev",
    "methods": {},
    "version": 1
  },
  "userdoc": {
    "kind": "user",
    "methods": {},
    "version": 1
  }
}